:03000000020336C2
:0C033600787FE4F6D8FD75811D02037D80
:050454000000000000A3
:1000250078187C007D007BFF7A0479547E007F057B
:10003500515F85841D75FFDE75FFAD110371EA7F84
:10004500E87E03911271C2851D84D2AF75100175CA
:100055001201750D00E5106401702A85841D7584F3
:100065000FC2FAC2FB7F0AFE911220DE0820DE05D0
:10007500530DFD8003430D02D2FAD2FB851D84E4A6
:10008500F510750E01E5126401705285841D7584A5
:100095000FC2FA7F0AFE911220DF12430D04E50D0F
:1000A50030E405430D408008530DBF8003530DFB1D
:1000B500D2FAC2FB7F0A7E00911220DF12430D089F
:1000C500E50D30E505430D808008530D7F80035312
:1000D5000DF7D2FB851D84E4F512750E01E50F645D
:1000E50001704385841D75840FE51530E211C2FA50
:1000F500C2F8C2F97F787E009112D2FA430D10E55D
:100105001530E311C2FBC2F8C2F97F787E00911267
:10011500D2FB430D20D2FAD2FBD2F8D2F9851D8449
:10012500E4F50F751201E50E64016002015A7518B8
:10013500EB751990850D1AF51BF51C7F02FE7418D9
:100145002FF8E6251CF51C0FBF00010EEF64044EC9
:1001550070ECE4FEFF5398FD74182FF8E6F599E46A
:10016500FDFCE59820E110C3ED94FFEC940F5007DA
:100175000DBD00010C80EB0FBF00010EEF64054EB5
:0A01850070D3E4F50E5398FD015A03
:1004300005130000000000011100010E0001100072
:09044000011200010F00010D0082
:1003C200AF84E4F584F5C875C90875CBFF75CA70AA
:1003D20085CBCD85CACCD2CAF58475985075911556
:0703E200D2AC43B8108F8478
:0103E90022F1
:02002300418515
:10028500C0E0C0D075D000C000C004C005C006C025
:010295000761
:10029600E4FFFDFCFEF58420980261240FBF08FCF4
:1002A60030987B7F007C007D00209810C3ED94FF82
:1002B600EC940F50070DBD00010C80EDC298740838
:1002C6002FF8A699EF64026003BF0304E5992EFE9A
:1002D6000FBF05D1E50864EB703EE5096490703800
:1002E600EE650C7033FF74082FF8E6FE74132FF8D2
:1002F600A6060FBF05F0E51624ED600C1460112468
:10030600037010751001800B751201530D0F8003D9
:10031600750F01530DFE8006750E01430D015398AE
:01032600FED8
:0F032700D007D006D005D004D000D0D0D0E0321F
:1003EA00AF8475840F758A80E4F597758C67FDFC78
:1003FA000DBD00010CE4B505F7ECB401F3E58C3052
:07040A00E7FB7597018F84E9
:0104110022C8
:10000300AF8475840F75E104E4F5E275E34043A41E
:0E00130001759F0F75F8FFF59D75D8FF8F845E
:0100210022BC
:0A044A00EF1F70011E144E70F72220
:10041200D3EF9400EE940040147DA37C08ED1D7090
:0D042200011CED4C70F7EF1F70E61E80E32B
:01042F0022AA
:10034200020025E493A3F8E493A34003F68001F2AC
:1003520008DFF48029E493A3F85407240CC8C333BC
:10036200C4540F4420C8834004F456800146F6DF8B
:10037200E4800B0102040810204080900430E47EE7
:10038200019360BCA3FF543F30E509541FFEE49380
:10039200A360010ECF54C025E060A840B8E493A347
:1003A200FAE493A3F8E493A3C8C582C8CAC583CA72
:1003B200F0A3C8C582C8CAC583CADFE9DEE780BE2A
:0104490000B2
:10018F00E709F608DFFA8046E709F208DFFA803E52
:10019F0088828C83E709F0A3DFFA8032E309F6083F
:1001AF00DFFA8078E309F208DFFA807088828C83A7
:1001BF00E309F0A3DFFA806489828A83E0A3F6085B
:1001CF00DFFA805889828A83E0A3F208DFFA804C35
:1001DF0080D280FA80C680D4806980F2803380100C
:1001EF0080A680EA809A80A880DA80E280CA803375
:1001FF0089828A83ECFAE493A3C8C582C8CCC583ED
:10020F00CCF0A3C8C582C8CCC583CCDFE9DEE780BC
:10021F000D89828A83E493A3F608DFF9ECFAA9F03B
:10022F00EDFB2289828A83ECFAE0A3C8C582C8CC91
:10023F00C583CCF0A3C8C582C8CCC583CCDFEADEAA
:10024F00E880DB89828A83E493A3F208DFF980CC0C
:10025F0088F0EF60010E4E60C388F0ED2402B40405
:10026F000050B9F582EB2402B4040050AF232345AC
:06027F0082239001DF73F1
:00000001FF
